{
  "contractName": "BlockchainSplitwise",
  "abi": [
    {
      "constant": true,
      "inputs": [
        {
          "name": "",
          "type": "address"
        },
        {
          "name": "",
          "type": "address"
        }
      ],
      "name": "debts",
      "outputs": [
        {
          "name": "",
          "type": "uint32"
        }
      ],
      "payable": false,
      "stateMutability": "view",
      "type": "function"
    },
    {
      "constant": true,
      "inputs": [
        {
          "name": "debtor",
          "type": "address"
        },
        {
          "name": "creditor",
          "type": "address"
        }
      ],
      "name": "lookup",
      "outputs": [
        {
          "name": "ret",
          "type": "uint32"
        }
      ],
      "payable": false,
      "stateMutability": "view",
      "type": "function"
    },
    {
      "constant": false,
      "inputs": [
        {
          "name": "creditor",
          "type": "address"
        },
        {
          "name": "amount",
          "type": "uint32"
        }
      ],
      "name": "add_IOU",
      "outputs": [],
      "payable": false,
      "stateMutability": "nonpayable",
      "type": "function"
    }
  ],
  "bytecode": "0x608060405234801561001057600080fd5b50610727806100206000396000f3fe608060405234801561001057600080fd5b50600436106100415760003560e01c80634ac1c33d14610046578063713584a6146100ca578063d12099e41461014e575b600080fd5b6100a86004803603604081101561005c57600080fd5b81019080803573ffffffffffffffffffffffffffffffffffffffff169060200190929190803573ffffffffffffffffffffffffffffffffffffffff1690602001909291905050506101a2565b604051808263ffffffff1663ffffffff16815260200191505060405180910390f35b61012c600480360360408110156100e057600080fd5b81019080803573ffffffffffffffffffffffffffffffffffffffff169060200190929190803573ffffffffffffffffffffffffffffffffffffffff1690602001909291905050506101d4565b604051808263ffffffff1663ffffffff16815260200191505060405180910390f35b6101a06004803603604081101561016457600080fd5b81019080803573ffffffffffffffffffffffffffffffffffffffff169060200190929190803563ffffffff16906020019092919050505061026a565b005b60006020528160005260406000206020528060005260406000206000915091509054906101000a900463ffffffff1681565b60008060008373ffffffffffffffffffffffffffffffffffffffff1673ffffffffffffffffffffffffffffffffffffffff16815260200190815260200160002060008473ffffffffffffffffffffffffffffffffffffffff1673ffffffffffffffffffffffffffffffffffffffff16815260200190815260200160002060009054906101000a900463ffffffff16905092915050565b60008163ffffffff161161027d57600080fd5b600082905060003390508263ffffffff166000808373ffffffffffffffffffffffffffffffffffffffff1673ffffffffffffffffffffffffffffffffffffffff16815260200190815260200160002060008473ffffffffffffffffffffffffffffffffffffffff1673ffffffffffffffffffffffffffffffffffffffff16815260200190815260200160002060009054906101000a900463ffffffff1663ffffffff1611156103da57826000808373ffffffffffffffffffffffffffffffffffffffff1673ffffffffffffffffffffffffffffffffffffffff16815260200190815260200160002060008473ffffffffffffffffffffffffffffffffffffffff1673ffffffffffffffffffffffffffffffffffffffff16815260200190815260200160002060008282829054906101000a900463ffffffff160392506101000a81548163ffffffff021916908363ffffffff1602179055506106f5565b8263ffffffff166000808373ffffffffffffffffffffffffffffffffffffffff1673ffffffffffffffffffffffffffffffffffffffff16815260200190815260200160002060008473ffffffffffffffffffffffffffffffffffffffff1673ffffffffffffffffffffffffffffffffffffffff16815260200190815260200160002060009054906101000a900463ffffffff1663ffffffff1614156105195760008060008373ffffffffffffffffffffffffffffffffffffffff1673ffffffffffffffffffffffffffffffffffffffff16815260200190815260200160002060008473ffffffffffffffffffffffffffffffffffffffff1673ffffffffffffffffffffffffffffffffffffffff16815260200190815260200160002060006101000a81548163ffffffff021916908363ffffffff1602179055506106f4565b6000808273ffffffffffffffffffffffffffffffffffffffff1673ffffffffffffffffffffffffffffffffffffffff16815260200190815260200160002060008373ffffffffffffffffffffffffffffffffffffffff1673ffffffffffffffffffffffffffffffffffffffff16815260200190815260200160002060009054906101000a900463ffffffff168303925060008060008373ffffffffffffffffffffffffffffffffffffffff1673ffffffffffffffffffffffffffffffffffffffff16815260200190815260200160002060008473ffffffffffffffffffffffffffffffffffffffff1673ffffffffffffffffffffffffffffffffffffffff16815260200190815260200160002060006101000a81548163ffffffff021916908363ffffffff160217905550826000808473ffffffffffffffffffffffffffffffffffffffff1673ffffffffffffffffffffffffffffffffffffffff16815260200190815260200160002060008373ffffffffffffffffffffffffffffffffffffffff1673ffffffffffffffffffffffffffffffffffffffff16815260200190815260200160002060008282829054906101000a900463ffffffff160192506101000a81548163ffffffff021916908363ffffffff1602179055505b5b5050505056fea165627a7a7230582029c4ecaf09a84098b13e355ce0890ebbd0605ad44e834716635c86a0aee8c1740029",
  "source": "pragma solidity ^0.5.8;\n\ncontract BlockchainSplitwise {\n    \n    // debts[to][from]\n    mapping(address => mapping (address => uint32)) public debts;\n\n    function lookup(address debtor, address creditor) public view returns (uint32 ret) {\n        ret = debts[creditor][debtor];\n    }\n\n    function add_IOU(address creditor, uint32 amount) public {\n        require(amount > 0);\n\n        address from = creditor;\n        address to = msg.sender;\n        // There is an existing deb (to -> from that exceeds the new debt (from -> to)\n        if (debts[to][from] > amount) {\n            debts[to][from] -= amount;\n\n            // The new debt (from -> to) is equal to the existing debt\n        } else if (debts[to][from] == amount) {\n            debts[to][from] = 0;\n            // The new debt (from -> to) exeeds the existing debt (to -> from)\n        } else {\n            amount -= debts[to][from];\n            debts[to][from] = 0;\n            debts[from][to] += amount;\n        }\n    }\n}\n",
  "sourcePath": "/Users/mohamadreza/itc-ca2/contracts/BlockchainSplitwise.sol",
  "compiler": {
    "name": "solc",
    "version": "0.5.8+commit.23d335f2.Emscripten.clang"
  },
  "schemaVersion": "3.0.10",
  "updatedAt": "2019-06-04T19:01:42.371Z",
  "devdoc": {
    "methods": {}
  },
  "userdoc": {
    "methods": {}
  }
}